{
  "contractName": "STC",
  "abi": [
    {
      "inputs": [],
      "stateMutability": "nonpayable",
      "type": "constructor"
    },
    {
      "anonymous": false,
      "inputs": [
        {
          "indexed": true,
          "internalType": "address",
          "name": "owner",
          "type": "address"
        },
        {
          "indexed": true,
          "internalType": "address",
          "name": "approved",
          "type": "address"
        },
        {
          "indexed": true,
          "internalType": "uint256",
          "name": "tokenId",
          "type": "uint256"
        }
      ],
      "name": "Approval",
      "type": "event"
    },
    {
      "anonymous": false,
      "inputs": [
        {
          "indexed": true,
          "internalType": "address",
          "name": "owner",
          "type": "address"
        },
        {
          "indexed": true,
          "internalType": "address",
          "name": "operator",
          "type": "address"
        },
        {
          "indexed": false,
          "internalType": "bool",
          "name": "approved",
          "type": "bool"
        }
      ],
      "name": "ApprovalForAll",
      "type": "event"
    },
    {
      "anonymous": false,
      "inputs": [
        {
          "indexed": true,
          "internalType": "address",
          "name": "previousOwner",
          "type": "address"
        },
        {
          "indexed": true,
          "internalType": "address",
          "name": "newOwner",
          "type": "address"
        }
      ],
      "name": "OwnershipTransferred",
      "type": "event"
    },
    {
      "anonymous": false,
      "inputs": [
        {
          "indexed": true,
          "internalType": "address",
          "name": "from",
          "type": "address"
        },
        {
          "indexed": true,
          "internalType": "address",
          "name": "to",
          "type": "address"
        },
        {
          "indexed": true,
          "internalType": "uint256",
          "name": "tokenId",
          "type": "uint256"
        }
      ],
      "name": "Transfer",
      "type": "event"
    },
    {
      "inputs": [
        {
          "internalType": "address",
          "name": "to",
          "type": "address"
        },
        {
          "internalType": "uint256",
          "name": "tokenId",
          "type": "uint256"
        }
      ],
      "name": "approve",
      "outputs": [],
      "stateMutability": "nonpayable",
      "type": "function"
    },
    {
      "inputs": [
        {
          "internalType": "address",
          "name": "owner",
          "type": "address"
        }
      ],
      "name": "balanceOf",
      "outputs": [
        {
          "internalType": "uint256",
          "name": "",
          "type": "uint256"
        }
      ],
      "stateMutability": "view",
      "type": "function",
      "constant": true
    },
    {
      "inputs": [
        {
          "internalType": "uint256",
          "name": "tokenId",
          "type": "uint256"
        }
      ],
      "name": "getApproved",
      "outputs": [
        {
          "internalType": "address",
          "name": "",
          "type": "address"
        }
      ],
      "stateMutability": "view",
      "type": "function",
      "constant": true
    },
    {
      "inputs": [
        {
          "internalType": "address",
          "name": "owner",
          "type": "address"
        },
        {
          "internalType": "address",
          "name": "operator",
          "type": "address"
        }
      ],
      "name": "isApprovedForAll",
      "outputs": [
        {
          "internalType": "bool",
          "name": "",
          "type": "bool"
        }
      ],
      "stateMutability": "view",
      "type": "function",
      "constant": true
    },
    {
      "inputs": [],
      "name": "name",
      "outputs": [
        {
          "internalType": "string",
          "name": "",
          "type": "string"
        }
      ],
      "stateMutability": "view",
      "type": "function",
      "constant": true
    },
    {
      "inputs": [],
      "name": "owner",
      "outputs": [
        {
          "internalType": "address",
          "name": "",
          "type": "address"
        }
      ],
      "stateMutability": "view",
      "type": "function",
      "constant": true
    },
    {
      "inputs": [
        {
          "internalType": "uint256",
          "name": "tokenId",
          "type": "uint256"
        }
      ],
      "name": "ownerOf",
      "outputs": [
        {
          "internalType": "address",
          "name": "",
          "type": "address"
        }
      ],
      "stateMutability": "view",
      "type": "function",
      "constant": true
    },
    {
      "inputs": [],
      "name": "renounceOwnership",
      "outputs": [],
      "stateMutability": "nonpayable",
      "type": "function"
    },
    {
      "inputs": [
        {
          "internalType": "address",
          "name": "from",
          "type": "address"
        },
        {
          "internalType": "address",
          "name": "to",
          "type": "address"
        },
        {
          "internalType": "uint256",
          "name": "tokenId",
          "type": "uint256"
        }
      ],
      "name": "safeTransferFrom",
      "outputs": [],
      "stateMutability": "nonpayable",
      "type": "function"
    },
    {
      "inputs": [
        {
          "internalType": "address",
          "name": "from",
          "type": "address"
        },
        {
          "internalType": "address",
          "name": "to",
          "type": "address"
        },
        {
          "internalType": "uint256",
          "name": "tokenId",
          "type": "uint256"
        },
        {
          "internalType": "bytes",
          "name": "_data",
          "type": "bytes"
        }
      ],
      "name": "safeTransferFrom",
      "outputs": [],
      "stateMutability": "nonpayable",
      "type": "function"
    },
    {
      "inputs": [
        {
          "internalType": "address",
          "name": "operator",
          "type": "address"
        },
        {
          "internalType": "bool",
          "name": "approved",
          "type": "bool"
        }
      ],
      "name": "setApprovalForAll",
      "outputs": [],
      "stateMutability": "nonpayable",
      "type": "function"
    },
    {
      "inputs": [
        {
          "internalType": "bytes4",
          "name": "interfaceId",
          "type": "bytes4"
        }
      ],
      "name": "supportsInterface",
      "outputs": [
        {
          "internalType": "bool",
          "name": "",
          "type": "bool"
        }
      ],
      "stateMutability": "view",
      "type": "function",
      "constant": true
    },
    {
      "inputs": [],
      "name": "symbol",
      "outputs": [
        {
          "internalType": "string",
          "name": "",
          "type": "string"
        }
      ],
      "stateMutability": "view",
      "type": "function",
      "constant": true
    },
    {
      "inputs": [
        {
          "internalType": "uint256",
          "name": "tokenId",
          "type": "uint256"
        }
      ],
      "name": "tokenURI",
      "outputs": [
        {
          "internalType": "string",
          "name": "",
          "type": "string"
        }
      ],
      "stateMutability": "view",
      "type": "function",
      "constant": true
    },
    {
      "inputs": [
        {
          "internalType": "address",
          "name": "from",
          "type": "address"
        },
        {
          "internalType": "address",
          "name": "to",
          "type": "address"
        },
        {
          "internalType": "uint256",
          "name": "tokenId",
          "type": "uint256"
        }
      ],
      "name": "transferFrom",
      "outputs": [],
      "stateMutability": "nonpayable",
      "type": "function"
    },
    {
      "inputs": [
        {
          "internalType": "address",
          "name": "newOwner",
          "type": "address"
        }
      ],
      "name": "transferOwnership",
      "outputs": [],
      "stateMutability": "nonpayable",
      "type": "function"
    },
    {
      "stateMutability": "payable",
      "type": "receive",
      "payable": true
    },
    {
      "inputs": [
        {
          "internalType": "string",
          "name": "_name",
          "type": "string"
        },
        {
          "internalType": "string",
          "name": "_hash",
          "type": "string"
        },
        {
          "internalType": "string",
          "name": "_metadata",
          "type": "string"
        },
        {
          "internalType": "string",
          "name": "_category",
          "type": "string"
        }
      ],
      "name": "mintNFT",
      "outputs": [],
      "stateMutability": "nonpayable",
      "type": "function"
    },
    {
      "inputs": [],
      "name": "owned_NFTs",
      "outputs": [
        {
          "internalType": "uint256[]",
          "name": "",
          "type": "uint256[]"
        }
      ],
      "stateMutability": "view",
      "type": "function",
      "constant": true
    },
    {
      "inputs": [
        {
          "internalType": "uint256",
          "name": "_tokenId",
          "type": "uint256"
        }
      ],
      "name": "NFT_details",
      "outputs": [
        {
          "components": [
            {
              "internalType": "address payable",
              "name": "owner",
              "type": "address"
            },
            {
              "internalType": "string",
              "name": "metadata",
              "type": "string"
            },
            {
              "internalType": "string",
              "name": "category",
              "type": "string"
            },
            {
              "internalType": "string",
              "name": "hash",
              "type": "string"
            },
            {
              "internalType": "string",
              "name": "name",
              "type": "string"
            }
          ],
          "internalType": "struct STC.NFT",
          "name": "",
          "type": "tuple"
        }
      ],
      "stateMutability": "view",
      "type": "function",
      "constant": true
    },
    {
      "inputs": [
        {
          "internalType": "string",
          "name": "category",
          "type": "string"
        }
      ],
      "name": "nfsByCategory",
      "outputs": [
        {
          "internalType": "uint256[]",
          "name": "",
          "type": "uint256[]"
        }
      ],
      "stateMutability": "view",
      "type": "function",
      "constant": true
    }
  ],
  "bytecode": "0x60806040523480156200001157600080fd5b506040518060400160405280600581526020017f546f6b656e0000000000000000000000000000000000000000000000000000008152506040518060400160405280600381526020017f4e4654000000000000000000000000000000000000000000000000000000000081525081600090805190602001906200009692919062000171565b508060019080519060200190620000af92919062000171565b5050506000620000c46200016960201b60201c565b905080600760006101000a81548173ffffffffffffffffffffffffffffffffffffffff021916908373ffffffffffffffffffffffffffffffffffffffff1602179055508073ffffffffffffffffffffffffffffffffffffffff16600073ffffffffffffffffffffffffffffffffffffffff167f8be0079c531659141344cd1fd0a4f28419497f9722a3daafe3b4186f6b6457e060405160405180910390a35062000286565b600033905090565b8280546200017f9062000221565b90600052602060002090601f016020900481019282620001a35760008555620001ef565b82601f10620001be57805160ff1916838001178555620001ef565b82800160010185558215620001ef579182015b82811115620001ee578251825591602001919060010190620001d1565b5b509050620001fe919062000202565b5090565b5b808211156200021d57600081600090555060010162000203565b5090565b600060028204905060018216806200023a57607f821691505b6020821081141562000251576200025062000257565b5b50919050565b7f4e487b7100000000000000000000000000000000000000000000000000000000600052602260045260246000fd5b61395980620002966000396000f3fe6080604052600436106101235760003560e01c8063715018a6116100a0578063b88d4fde11610064578063b88d4fde14610404578063c87b56dd1461042d578063e985e9c51461046a578063eec90571146104a7578063f2fde38b146104d05761012a565b8063715018a61461033157806380740791146103485780638da5cb5b1461038557806395d89b41146103b0578063a22cb465146103db5761012a565b806323b872dd116100e757806323b872dd1461023a57806342842e0e146102635780634b834fcd1461028c5780636352211e146102b757806370a08231146102f45761012a565b806301ffc9a71461012f57806306fdde031461016c578063081812fc14610197578063095ea7b3146101d45780631df6047b146101fd5761012a565b3661012a57005b600080fd5b34801561013b57600080fd5b50610156600480360381019061015191906126f4565b6104f9565b60405161016391906131f3565b60405180910390f35b34801561017857600080fd5b506101816105db565b60405161018e919061320e565b60405180910390f35b3480156101a357600080fd5b506101be60048036038101906101b9919061284a565b61066d565b6040516101cb919061316a565b60405180910390f35b3480156101e057600080fd5b506101fb60048036038101906101f691906126b8565b6106f2565b005b34801561020957600080fd5b50610224600480360381019061021f9190612746565b61080a565b60405161023191906131d1565b60405180910390f35b34801561024657600080fd5b50610261600480360381019061025c91906125b2565b610811565b005b34801561026f57600080fd5b5061028a600480360381019061028591906125b2565b610871565b005b34801561029857600080fd5b506102a1610891565b6040516102ae91906131d1565b60405180910390f35b3480156102c357600080fd5b506102de60048036038101906102d9919061284a565b610921565b6040516102eb919061316a565b60405180910390f35b34801561030057600080fd5b5061031b6004803603810190610316919061254d565b6109d3565b6040516103289190613492565b60405180910390f35b34801561033d57600080fd5b50610346610a8b565b005b34801561035457600080fd5b5061036f600480360381019061036a919061284a565b610bc8565b60405161037c9190613470565b60405180910390f35b34801561039157600080fd5b5061039a610e93565b6040516103a7919061316a565b60405180910390f35b3480156103bc57600080fd5b506103c5610ebd565b6040516103d2919061320e565b60405180910390f35b3480156103e757600080fd5b5061040260048036038101906103fd919061267c565b610f4f565b005b34801561041057600080fd5b5061042b60048036038101906104269190612601565b6110d0565b005b34801561043957600080fd5b50610454600480360381019061044f919061284a565b611132565b604051610461919061320e565b60405180910390f35b34801561047657600080fd5b50610491600480360381019061048c9190612576565b611284565b60405161049e91906131f3565b60405180910390f35b3480156104b357600080fd5b506104ce60048036038101906104c99190612787565b611318565b005b3480156104dc57600080fd5b506104f760048036038101906104f2919061254d565b6114eb565b005b60007f80ac58cd000000000000000000000000000000000000000000000000000000007bffffffffffffffffffffffffffffffffffffffffffffffffffffffff1916827bffffffffffffffffffffffffffffffffffffffffffffffffffffffff191614806105c457507f5b5e139f000000000000000000000000000000000000000000000000000000007bffffffffffffffffffffffffffffffffffffffffffffffffffffffff1916827bffffffffffffffffffffffffffffffffffffffffffffffffffffffff1916145b806105d457506105d382611697565b5b9050919050565b6060600080546105ea9061374e565b80601f01602080910402602001604051908101604052809291908181526020018280546106169061374e565b80156106635780601f1061063857610100808354040283529160200191610663565b820191906000526020600020905b81548152906001019060200180831161064657829003601f168201915b5050505050905090565b600061067882611701565b6106b7576040517f08c379a00000000000000000000000000000000000000000000000000000000081526004016106ae906133b0565b60405180910390fd5b6004600083815260200190815260200160002060009054906101000a900473ffffffffffffffffffffffffffffffffffffffff169050919050565b60006106fd82610921565b90508073ffffffffffffffffffffffffffffffffffffffff168373ffffffffffffffffffffffffffffffffffffffff16141561076e576040517f08c379a000000000000000000000000000000000000000000000000000000000815260040161076590613430565b60405180910390fd5b8073ffffffffffffffffffffffffffffffffffffffff1661078d61176d565b73ffffffffffffffffffffffffffffffffffffffff1614806107bc57506107bb816107b661176d565b611284565b5b6107fb576040517f08c379a00000000000000000000000000000000000000000000000000000000081526004016107f2906132f0565b60405180910390fd5b6108058383611775565b505050565b6060919050565b61082261081c61176d565b8261182e565b610861576040517f08c379a000000000000000000000000000000000000000000000000000000000815260040161085890613450565b60405180910390fd5b61086c83838361190c565b505050565b61088c838383604051806020016040528060008152506110d0565b505050565b6060806000805b6108a1336109d3565b811015610918576108b23382611b68565b8383815181106108eb577f4e487b7100000000000000000000000000000000000000000000000000000000600052603260045260246000fd5b602002602001018181525050818061090290613780565b925050808061091090613780565b915050610898565b82935050505090565b6000806002600084815260200190815260200160002060009054906101000a900473ffffffffffffffffffffffffffffffffffffffff169050600073ffffffffffffffffffffffffffffffffffffffff168173ffffffffffffffffffffffffffffffffffffffff1614156109ca576040517f08c379a00000000000000000000000000000000000000000000000000000000081526004016109c190613330565b60405180910390fd5b80915050919050565b60008073ffffffffffffffffffffffffffffffffffffffff168273ffffffffffffffffffffffffffffffffffffffff161415610a44576040517f08c379a0000000000000000000000000000000000000000000000000000000008152600401610a3b90613310565b60405180910390fd5b600360008373ffffffffffffffffffffffffffffffffffffffff1673ffffffffffffffffffffffffffffffffffffffff168152602001908152602001600020549050919050565b610a9361176d565b73ffffffffffffffffffffffffffffffffffffffff16610ab1610e93565b73ffffffffffffffffffffffffffffffffffffffff1614610b07576040517f08c379a0000000000000000000000000000000000000000000000000000000008152600401610afe906133d0565b60405180910390fd5b600073ffffffffffffffffffffffffffffffffffffffff16600760009054906101000a900473ffffffffffffffffffffffffffffffffffffffff1673ffffffffffffffffffffffffffffffffffffffff167f8be0079c531659141344cd1fd0a4f28419497f9722a3daafe3b4186f6b6457e060405160405180910390a36000600760006101000a81548173ffffffffffffffffffffffffffffffffffffffff021916908373ffffffffffffffffffffffffffffffffffffffff160217905550565b610bd061232c565b600a60008381526020019081526020016000206040518060a00160405290816000820160009054906101000a900473ffffffffffffffffffffffffffffffffffffffff1673ffffffffffffffffffffffffffffffffffffffff1673ffffffffffffffffffffffffffffffffffffffff168152602001600182018054610c549061374e565b80601f0160208091040260200160405190810160405280929190818152602001828054610c809061374e565b8015610ccd5780601f10610ca257610100808354040283529160200191610ccd565b820191906000526020600020905b815481529060010190602001808311610cb057829003601f168201915b50505050508152602001600282018054610ce69061374e565b80601f0160208091040260200160405190810160405280929190818152602001828054610d129061374e565b8015610d5f5780601f10610d3457610100808354040283529160200191610d5f565b820191906000526020600020905b815481529060010190602001808311610d4257829003601f168201915b50505050508152602001600382018054610d789061374e565b80601f0160208091040260200160405190810160405280929190818152602001828054610da49061374e565b8015610df15780601f10610dc657610100808354040283529160200191610df1565b820191906000526020600020905b815481529060010190602001808311610dd457829003601f168201915b50505050508152602001600482018054610e0a9061374e565b80601f0160208091040260200160405190810160405280929190818152602001828054610e369061374e565b8015610e835780601f10610e5857610100808354040283529160200191610e83565b820191906000526020600020905b815481529060010190602001808311610e6657829003601f168201915b5050505050815250509050919050565b6000600760009054906101000a900473ffffffffffffffffffffffffffffffffffffffff16905090565b606060018054610ecc9061374e565b80601f0160208091040260200160405190810160405280929190818152602001828054610ef89061374e565b8015610f455780601f10610f1a57610100808354040283529160200191610f45565b820191906000526020600020905b815481529060010190602001808311610f2857829003601f168201915b5050505050905090565b610f5761176d565b73ffffffffffffffffffffffffffffffffffffffff168273ffffffffffffffffffffffffffffffffffffffff161415610fc5576040517f08c379a0000000000000000000000000000000000000000000000000000000008152600401610fbc906132b0565b60405180910390fd5b8060056000610fd261176d565b73ffffffffffffffffffffffffffffffffffffffff1673ffffffffffffffffffffffffffffffffffffffff16815260200190815260200160002060008473ffffffffffffffffffffffffffffffffffffffff1673ffffffffffffffffffffffffffffffffffffffff16815260200190815260200160002060006101000a81548160ff0219169083151502179055508173ffffffffffffffffffffffffffffffffffffffff1661107f61176d565b73ffffffffffffffffffffffffffffffffffffffff167f17307eab39ab6107e8899845ad3d59bd9653f200f220920489ca2b5937696c31836040516110c491906131f3565b60405180910390a35050565b6110e16110db61176d565b8361182e565b611120576040517f08c379a000000000000000000000000000000000000000000000000000000000815260040161111790613450565b60405180910390fd5b61112c84848484611bd7565b50505050565b606061113d82611701565b61117c576040517f08c379a000000000000000000000000000000000000000000000000000000000815260040161117390613390565b60405180910390fd5b600060066000848152602001908152602001600020805461119c9061374e565b80601f01602080910402602001604051908101604052809291908181526020018280546111c89061374e565b80156112155780601f106111ea57610100808354040283529160200191611215565b820191906000526020600020905b8154815290600101906020018083116111f857829003601f168201915b505050505090506000611226611c33565b905060008151141561123c57819250505061127f565b600082511115611271578082604051602001611259929190613146565b6040516020818303038152906040529250505061127f565b61127a84611c4a565b925050505b919050565b6000600560008473ffffffffffffffffffffffffffffffffffffffff1673ffffffffffffffffffffffffffffffffffffffff16815260200190815260200160002060008373ffffffffffffffffffffffffffffffffffffffff1673ffffffffffffffffffffffffffffffffffffffff16815260200190815260200160002060009054906101000a900460ff16905092915050565b6001151560098460405161132c919061312f565b908152602001604051809103902060009054906101000a900460ff161515141561135557600080fd5b6001600984604051611367919061312f565b908152602001604051809103902060006101000a81548160ff0219169083151502179055506113966008611cf1565b60006113a26008611d07565b90506113ae3382611d15565b6113b88184611d33565b6000600a60008381526020019081526020016000209050838160010190805190602001906113e7929190612371565b5085816004019080519060200190611400929190612371565b5084816003019080519060200190611419929190612371565b5082816002019080519060200190611432929190612371565b5033600a600084815260200190815260200160002060000160006101000a81548173ffffffffffffffffffffffffffffffffffffffff021916908373ffffffffffffffffffffffffffffffffffffffff160217905550813373ffffffffffffffffffffffffffffffffffffffff163073ffffffffffffffffffffffffffffffffffffffff167fddf252ad1be2c89b69c2b068fc378daa952ba7f163c4a11628f55a4df523b3ef60405160405180910390a4505050505050565b6114f361176d565b73ffffffffffffffffffffffffffffffffffffffff16611511610e93565b73ffffffffffffffffffffffffffffffffffffffff1614611567576040517f08c379a000000000000000000000000000000000000000000000000000000000815260040161155e906133d0565b60405180910390fd5b600073ffffffffffffffffffffffffffffffffffffffff168173ffffffffffffffffffffffffffffffffffffffff1614156115d7576040517f08c379a00000000000000000000000000000000000000000000000000000000081526004016115ce90613250565b60405180910390fd5b8073ffffffffffffffffffffffffffffffffffffffff16600760009054906101000a900473ffffffffffffffffffffffffffffffffffffffff1673ffffffffffffffffffffffffffffffffffffffff167f8be0079c531659141344cd1fd0a4f28419497f9722a3daafe3b4186f6b6457e060405160405180910390a380600760006101000a81548173ffffffffffffffffffffffffffffffffffffffff021916908373ffffffffffffffffffffffffffffffffffffffff16021790555050565b60007f01ffc9a7000000000000000000000000000000000000000000000000000000007bffffffffffffffffffffffffffffffffffffffffffffffffffffffff1916827bffffffffffffffffffffffffffffffffffffffffffffffffffffffff1916149050919050565b60008073ffffffffffffffffffffffffffffffffffffffff166002600084815260200190815260200160002060009054906101000a900473ffffffffffffffffffffffffffffffffffffffff1673ffffffffffffffffffffffffffffffffffffffff1614159050919050565b600033905090565b816004600083815260200190815260200160002060006101000a81548173ffffffffffffffffffffffffffffffffffffffff021916908373ffffffffffffffffffffffffffffffffffffffff160217905550808273ffffffffffffffffffffffffffffffffffffffff166117e883610921565b73ffffffffffffffffffffffffffffffffffffffff167f8c5be1e5ebec7d5bd14f71427d1e84f3dd0314c0f7b2291e5b200ac8c7c3b92560405160405180910390a45050565b600061183982611701565b611878576040517f08c379a000000000000000000000000000000000000000000000000000000000815260040161186f906132d0565b60405180910390fd5b600061188383610921565b90508073ffffffffffffffffffffffffffffffffffffffff168473ffffffffffffffffffffffffffffffffffffffff1614806118f257508373ffffffffffffffffffffffffffffffffffffffff166118da8461066d565b73ffffffffffffffffffffffffffffffffffffffff16145b8061190357506119028185611284565b5b91505092915050565b8273ffffffffffffffffffffffffffffffffffffffff1661192c82610921565b73ffffffffffffffffffffffffffffffffffffffff1614611982576040517f08c379a0000000000000000000000000000000000000000000000000000000008152600401611979906133f0565b60405180910390fd5b600073ffffffffffffffffffffffffffffffffffffffff168273ffffffffffffffffffffffffffffffffffffffff1614156119f2576040517f08c379a00000000000000000000000000000000000000000000000000000000081526004016119e990613290565b60405180910390fd5b6119fd838383611da7565b611a08600082611775565b6001600360008573ffffffffffffffffffffffffffffffffffffffff1673ffffffffffffffffffffffffffffffffffffffff1681526020019081526020016000206000828254611a589190613652565b925050819055506001600360008473ffffffffffffffffffffffffffffffffffffffff1673ffffffffffffffffffffffffffffffffffffffff1681526020019081526020016000206000828254611aaf91906135cb565b92505081905550816002600083815260200190815260200160002060006101000a81548173ffffffffffffffffffffffffffffffffffffffff021916908373ffffffffffffffffffffffffffffffffffffffff160217905550808273ffffffffffffffffffffffffffffffffffffffff168473ffffffffffffffffffffffffffffffffffffffff167fddf252ad1be2c89b69c2b068fc378daa952ba7f163c4a11628f55a4df523b3ef60405160405180910390a4505050565b6000611b73836109d3565b8210611b7e57600080fd5b600b60008473ffffffffffffffffffffffffffffffffffffffff1673ffffffffffffffffffffffffffffffffffffffff168152602001908152602001600020600083815260200190815260200160002054905092915050565b611be284848461190c565b611bee84848484611dac565b611c2d576040517f08c379a0000000000000000000000000000000000000000000000000000000008152600401611c2490613230565b60405180910390fd5b50505050565b606060405180602001604052806000815250905090565b6060611c5582611701565b611c94576040517f08c379a0000000000000000000000000000000000000000000000000000000008152600401611c8b90613410565b60405180910390fd5b6000611c9e611c33565b90506000815111611cbe5760405180602001604052806000815250611ce9565b80611cc884611f43565b604051602001611cd9929190613146565b6040516020818303038152906040525b915050919050565b6001816000016000828254019250508190555050565b600081600001549050919050565b611d2f8282604051806020016040528060008152506120f0565b5050565b611d3c82611701565b611d7b576040517f08c379a0000000000000000000000000000000000000000000000000000000008152600401611d7290613350565b60405180910390fd5b80600660008481526020019081526020016000209080519060200190611da2929190612371565b505050565b505050565b6000611dcd8473ffffffffffffffffffffffffffffffffffffffff1661214b565b15611f36578373ffffffffffffffffffffffffffffffffffffffff1663150b7a02611df661176d565b8786866040518563ffffffff1660e01b8152600401611e189493929190613185565b602060405180830381600087803b158015611e3257600080fd5b505af1925050508015611e6357506040513d601f19601f82011682018060405250810190611e60919061271d565b60015b611ee6573d8060008114611e93576040519150601f19603f3d011682016040523d82523d6000602084013e611e98565b606091505b50600081511415611ede576040517f08c379a0000000000000000000000000000000000000000000000000000000008152600401611ed590613230565b60405180910390fd5b805181602001fd5b63150b7a0260e01b7bffffffffffffffffffffffffffffffffffffffffffffffffffffffff1916817bffffffffffffffffffffffffffffffffffffffffffffffffffffffff191614915050611f3b565b600190505b949350505050565b60606000821415611f8b576040518060400160405280600181526020017f300000000000000000000000000000000000000000000000000000000000000081525090506120eb565b600082905060005b60008214611fbd578080611fa690613780565b915050600a82611fb69190613621565b9150611f93565b60008167ffffffffffffffff811115611fff577f4e487b7100000000000000000000000000000000000000000000000000000000600052604160045260246000fd5b6040519080825280601f01601f1916602001820160405280156120315781602001600182028036833780820191505090505b5090505b600085146120e45760018261204a9190613652565b9150600a8561205991906137c9565b603061206591906135cb565b60f81b8183815181106120a1577f4e487b7100000000000000000000000000000000000000000000000000000000600052603260045260246000fd5b60200101907effffffffffffffffffffffffffffffffffffffffffffffffffffffffffffff1916908160001a905350600a856120dd9190613621565b9450612035565b8093505050505b919050565b6120fa838361215e565b6121076000848484611dac565b612146576040517f08c379a000000000000000000000000000000000000000000000000000000000815260040161213d90613230565b60405180910390fd5b505050565b600080823b905060008111915050919050565b600073ffffffffffffffffffffffffffffffffffffffff168273ffffffffffffffffffffffffffffffffffffffff1614156121ce576040517f08c379a00000000000000000000000000000000000000000000000000000000081526004016121c590613370565b60405180910390fd5b6121d781611701565b15612217576040517f08c379a000000000000000000000000000000000000000000000000000000000815260040161220e90613270565b60405180910390fd5b61222360008383611da7565b6001600360008473ffffffffffffffffffffffffffffffffffffffff1673ffffffffffffffffffffffffffffffffffffffff168152602001908152602001600020600082825461227391906135cb565b92505081905550816002600083815260200190815260200160002060006101000a81548173ffffffffffffffffffffffffffffffffffffffff021916908373ffffffffffffffffffffffffffffffffffffffff160217905550808273ffffffffffffffffffffffffffffffffffffffff16600073ffffffffffffffffffffffffffffffffffffffff167fddf252ad1be2c89b69c2b068fc378daa952ba7f163c4a11628f55a4df523b3ef60405160405180910390a45050565b6040518060a00160405280600073ffffffffffffffffffffffffffffffffffffffff168152602001606081526020016060815260200160608152602001606081525090565b82805461237d9061374e565b90600052602060002090601f01602090048101928261239f57600085556123e6565b82601f106123b857805160ff19168380011785556123e6565b828001600101855582156123e6579182015b828111156123e55782518255916020019190600101906123ca565b5b5090506123f391906123f7565b5090565b5b808211156124105760008160009055506001016123f8565b5090565b6000612427612422846134de565b6134ad565b90508281526020810184848401111561243f57600080fd5b61244a84828561370c565b509392505050565b60006124656124608461350e565b6134ad565b90508281526020810184848401111561247d57600080fd5b61248884828561370c565b509392505050565b60008135905061249f816138c7565b92915050565b6000813590506124b4816138de565b92915050565b6000813590506124c9816138f5565b92915050565b6000815190506124de816138f5565b92915050565b600082601f8301126124f557600080fd5b8135612505848260208601612414565b91505092915050565b600082601f83011261251f57600080fd5b813561252f848260208601612452565b91505092915050565b6000813590506125478161390c565b92915050565b60006020828403121561255f57600080fd5b600061256d84828501612490565b91505092915050565b6000806040838503121561258957600080fd5b600061259785828601612490565b92505060206125a885828601612490565b9150509250929050565b6000806000606084860312156125c757600080fd5b60006125d586828701612490565b93505060206125e686828701612490565b92505060406125f786828701612538565b9150509250925092565b6000806000806080858703121561261757600080fd5b600061262587828801612490565b945050602061263687828801612490565b935050604061264787828801612538565b925050606085013567ffffffffffffffff81111561266457600080fd5b612670878288016124e4565b91505092959194509250565b6000806040838503121561268f57600080fd5b600061269d85828601612490565b92505060206126ae858286016124a5565b9150509250929050565b600080604083850312156126cb57600080fd5b60006126d985828601612490565b92505060206126ea85828601612538565b9150509250929050565b60006020828403121561270657600080fd5b6000612714848285016124ba565b91505092915050565b60006020828403121561272f57600080fd5b600061273d848285016124cf565b91505092915050565b60006020828403121561275857600080fd5b600082013567ffffffffffffffff81111561277257600080fd5b61277e8482850161250e565b91505092915050565b6000806000806080858703121561279d57600080fd5b600085013567ffffffffffffffff8111156127b757600080fd5b6127c38782880161250e565b945050602085013567ffffffffffffffff8111156127e057600080fd5b6127ec8782880161250e565b935050604085013567ffffffffffffffff81111561280957600080fd5b6128158782880161250e565b925050606085013567ffffffffffffffff81111561283257600080fd5b61283e8782880161250e565b91505092959194509250565b60006020828403121561285c57600080fd5b600061286a84828501612538565b91505092915050565b600061287f8383613111565b60208301905092915050565b61289481613698565b82525050565b6128a381613686565b82525050565b60006128b48261354e565b6128be818561357c565b93506128c98361353e565b8060005b838110156128fa5781516128e18882612873565b97506128ec8361356f565b9250506001810190506128cd565b5085935050505092915050565b612910816136aa565b82525050565b600061292182613559565b61292b818561358d565b935061293b81856020860161371b565b612944816138b6565b840191505092915050565b600061295a82613564565b612964818561359e565b935061297481856020860161371b565b61297d816138b6565b840191505092915050565b600061299382613564565b61299d81856135af565b93506129ad81856020860161371b565b6129b6816138b6565b840191505092915050565b60006129cc82613564565b6129d681856135c0565b93506129e681856020860161371b565b80840191505092915050565b60006129ff6032836135af565b91507f4552433732313a207472616e7366657220746f206e6f6e20455243373231526560008301527f63656976657220696d706c656d656e74657200000000000000000000000000006020830152604082019050919050565b6000612a656026836135af565b91507f4f776e61626c653a206e6577206f776e657220697320746865207a65726f206160008301527f64647265737300000000000000000000000000000000000000000000000000006020830152604082019050919050565b6000612acb601c836135af565b91507f4552433732313a20746f6b656e20616c7265616479206d696e746564000000006000830152602082019050919050565b6000612b0b6024836135af565b91507f4552433732313a207472616e7366657220746f20746865207a65726f2061646460008301527f72657373000000000000000000000000000000000000000000000000000000006020830152604082019050919050565b6000612b716019836135af565b91507f4552433732313a20617070726f766520746f2063616c6c6572000000000000006000830152602082019050919050565b6000612bb1602c836135af565b91507f4552433732313a206f70657261746f7220717565727920666f72206e6f6e657860008301527f697374656e7420746f6b656e00000000000000000000000000000000000000006020830152604082019050919050565b6000612c176038836135af565b91507f4552433732313a20617070726f76652063616c6c6572206973206e6f74206f7760008301527f6e6572206e6f7220617070726f76656420666f7220616c6c00000000000000006020830152604082019050919050565b6000612c7d602a836135af565b91507f4552433732313a2062616c616e636520717565727920666f7220746865207a6560008301527f726f2061646472657373000000000000000000000000000000000000000000006020830152604082019050919050565b6000612ce36029836135af565b91507f4552433732313a206f776e657220717565727920666f72206e6f6e657869737460008301527f656e7420746f6b656e00000000000000000000000000000000000000000000006020830152604082019050919050565b6000612d49602e836135af565b91507f45524337323155524953746f726167653a2055524920736574206f66206e6f6e60008301527f6578697374656e7420746f6b656e0000000000000000000000000000000000006020830152604082019050919050565b6000612daf6020836135af565b91507f4552433732313a206d696e7420746f20746865207a65726f20616464726573736000830152602082019050919050565b6000612def6031836135af565b91507f45524337323155524953746f726167653a2055524920717565727920666f722060008301527f6e6f6e6578697374656e7420746f6b656e0000000000000000000000000000006020830152604082019050919050565b6000612e55602c836135af565b91507f4552433732313a20617070726f76656420717565727920666f72206e6f6e657860008301527f697374656e7420746f6b656e00000000000000000000000000000000000000006020830152604082019050919050565b6000612ebb6020836135af565b91507f4f776e61626c653a2063616c6c6572206973206e6f7420746865206f776e65726000830152602082019050919050565b6000612efb6029836135af565b91507f4552433732313a207472616e73666572206f6620746f6b656e2074686174206960008301527f73206e6f74206f776e00000000000000000000000000000000000000000000006020830152604082019050919050565b6000612f61602f836135af565b91507f4552433732314d657461646174613a2055524920717565727920666f72206e6f60008301527f6e6578697374656e7420746f6b656e00000000000000000000000000000000006020830152604082019050919050565b6000612fc76021836135af565b91507f4552433732313a20617070726f76616c20746f2063757272656e74206f776e6560008301527f72000000000000000000000000000000000000000000000000000000000000006020830152604082019050919050565b600061302d6031836135af565b91507f4552433732313a207472616e736665722063616c6c6572206973206e6f74206f60008301527f776e6572206e6f7220617070726f7665640000000000000000000000000000006020830152604082019050919050565b600060a08301600083015161309e600086018261288b565b50602083015184820360208601526130b6828261294f565b915050604083015184820360408601526130d0828261294f565b915050606083015184820360608601526130ea828261294f565b91505060808301518482036080860152613104828261294f565b9150508091505092915050565b61311a81613702565b82525050565b61312981613702565b82525050565b600061313b82846129c1565b915081905092915050565b600061315282856129c1565b915061315e82846129c1565b91508190509392505050565b600060208201905061317f600083018461289a565b92915050565b600060808201905061319a600083018761289a565b6131a7602083018661289a565b6131b46040830185613120565b81810360608301526131c68184612916565b905095945050505050565b600060208201905081810360008301526131eb81846128a9565b905092915050565b60006020820190506132086000830184612907565b92915050565b600060208201905081810360008301526132288184612988565b905092915050565b60006020820190508181036000830152613249816129f2565b9050919050565b6000602082019050818103600083015261326981612a58565b9050919050565b6000602082019050818103600083015261328981612abe565b9050919050565b600060208201905081810360008301526132a981612afe565b9050919050565b600060208201905081810360008301526132c981612b64565b9050919050565b600060208201905081810360008301526132e981612ba4565b9050919050565b6000602082019050818103600083015261330981612c0a565b9050919050565b6000602082019050818103600083015261332981612c70565b9050919050565b6000602082019050818103600083015261334981612cd6565b9050919050565b6000602082019050818103600083015261336981612d3c565b9050919050565b6000602082019050818103600083015261338981612da2565b9050919050565b600060208201905081810360008301526133a981612de2565b9050919050565b600060208201905081810360008301526133c981612e48565b9050919050565b600060208201905081810360008301526133e981612eae565b9050919050565b6000602082019050818103600083015261340981612eee565b9050919050565b6000602082019050818103600083015261342981612f54565b9050919050565b6000602082019050818103600083015261344981612fba565b9050919050565b6000602082019050818103600083015261346981613020565b9050919050565b6000602082019050818103600083015261348a8184613086565b905092915050565b60006020820190506134a76000830184613120565b92915050565b6000604051905081810181811067ffffffffffffffff821117156134d4576134d3613887565b5b8060405250919050565b600067ffffffffffffffff8211156134f9576134f8613887565b5b601f19601f8301169050602081019050919050565b600067ffffffffffffffff82111561352957613528613887565b5b601f19601f8301169050602081019050919050565b6000819050602082019050919050565b600081519050919050565b600081519050919050565b600081519050919050565b6000602082019050919050565b600082825260208201905092915050565b600082825260208201905092915050565b600082825260208201905092915050565b600082825260208201905092915050565b600081905092915050565b60006135d682613702565b91506135e183613702565b9250827fffffffffffffffffffffffffffffffffffffffffffffffffffffffffffffffff03821115613616576136156137fa565b5b828201905092915050565b600061362c82613702565b915061363783613702565b92508261364757613646613829565b5b828204905092915050565b600061365d82613702565b915061366883613702565b92508282101561367b5761367a6137fa565b5b828203905092915050565b6000613691826136e2565b9050919050565b60006136a3826136e2565b9050919050565b60008115159050919050565b60007fffffffff0000000000000000000000000000000000000000000000000000000082169050919050565b600073ffffffffffffffffffffffffffffffffffffffff82169050919050565b6000819050919050565b82818337600083830152505050565b60005b8381101561373957808201518184015260208101905061371e565b83811115613748576000848401525b50505050565b6000600282049050600182168061376657607f821691505b6020821081141561377a57613779613858565b5b50919050565b600061378b82613702565b91507fffffffffffffffffffffffffffffffffffffffffffffffffffffffffffffffff8214156137be576137bd6137fa565b5b600182019050919050565b60006137d482613702565b91506137df83613702565b9250826137ef576137ee613829565b5b828206905092915050565b7f4e487b7100000000000000000000000000000000000000000000000000000000600052601160045260246000fd5b7f4e487b7100000000000000000000000000000000000000000000000000000000600052601260045260246000fd5b7f4e487b7100000000000000000000000000000000000000000000000000000000600052602260045260246000fd5b7f4e487b7100000000000000000000000000000000000000000000000000000000600052604160045260246000fd5b6000601f19601f8301169050919050565b6138d081613686565b81146138db57600080fd5b50565b6138e7816136aa565b81146138f257600080fd5b50565b6138fe816136b6565b811461390957600080fd5b50565b61391581613702565b811461392057600080fd5b5056fea26469706673582212208ce21d70d0260eb024f8bf5b19e752c26b194e545f4c5a59fd6461d768a48d9164736f6c63430008000033",
  "immutableReferences": {},
  "source": "pragma solidity >=0.6.4 <0.9.0;\r\n\r\nimport '@openzeppelin/contracts/token/ERC721/ERC721.sol';\r\nimport '@openzeppelin/contracts/token/ERC721/extensions/ERC721URIStorage.sol';\r\nimport '@openzeppelin/contracts/access/Ownable.sol';\r\nimport '@openzeppelin/contracts/utils/Counters.sol';\r\n\r\ncontract STC is ERC721URIStorage, Ownable {\r\n    using Counters for Counters.Counter;\r\n    Counters.Counter private _tokenIds;\r\n  \r\n    constructor() ERC721('Token', 'NFT') {} // Change name and symbol to something related.\r\n    receive() external payable {}\r\n  \r\n\r\n    struct NFT {\r\n      address payable owner;\r\n      string metadata;      // Owner, description, category, fileHash, etc.\r\n      string category;      // Assignment, project, etc.\r\n      string hash;\r\n      string name;\r\n    }\r\n  \r\n    mapping(string => bool) hashExists;\r\n    mapping(uint256 => NFT) tokenIdToNft;\r\n    mapping(address => mapping(uint256 => uint256)) private _ownedTokens;\r\n    \r\n\r\n  function mintNFT(string memory _name, string memory _hash, string memory _metadata, string memory _category) external {\r\n  \r\n  // This function takes in generated hash, metadata, category and an input name for the token.\r\n  \r\n      require(hashExists[_hash] != true);\r\n    \r\n      hashExists[_hash] = true;\r\n      _tokenIds.increment();\r\n    \r\n      uint256 newTokenId = _tokenIds.current();\r\n      _safeMint(msg.sender, newTokenId);\r\n      _setTokenURI(newTokenId, _metadata);\r\n    \r\n      NFT storage nft = tokenIdToNft[newTokenId];\r\n      nft.metadata = _metadata;\r\n      nft.name = _name;\r\n      nft.hash = _hash;\r\n      nft.category = _category;\r\n      tokenIdToNft[newTokenId].owner = payable(msg.sender);\r\n      emit Transfer(address(this), msg.sender, newTokenId);\r\n  }\r\n  \r\n  /*\r\n  function burnNFT(uint256 _tokenId) external {\r\n  // Deletes the Assignment.\r\n  \r\n      delete hashExists[tokenIdToNft[_tokenId].hash];\r\n      delete tokenIdToNft[_tokenId];\r\n      _burn(_tokenId);\r\n  }*/\r\n  \r\n  \r\n  function tokenOfOwnerByIndex(address _owner, uint256 _index) internal view returns (uint256) {\r\n  \r\n  // Used internally for owned_NFTs. Copied from ERC721Enumerable contract.\r\n  \r\n      require(_index < balanceOf(_owner));\r\n      return _ownedTokens[_owner][_index];\r\n  }\r\n  \r\n  function owned_NFTs() external view returns (uint256[] memory) {\r\n  \r\n  // This needs fix. No compile errors, but unexpected result.\r\n  \r\n      uint256[] memory nftList;\r\n      uint listIndex = 0;\r\n      uint256 tokenIndex;\r\n      \r\n      for (tokenIndex = 0; tokenIndex < balanceOf(msg.sender); tokenIndex++) {\r\n          nftList[listIndex] = tokenOfOwnerByIndex(msg.sender, tokenIndex);\r\n          listIndex++;\r\n          }\r\n      return nftList;\r\n  }\r\n  function NFT_details(uint256 _tokenId) external view returns (NFT memory) {\r\n        // Returns NFT struct of the token ID.\r\n        return tokenIdToNft[_tokenId];\r\n    }\r\n  function nfsByCategory(string memory category) external view returns (uint256[] memory) {\r\n      // Logic \r\n  }\r\n}",
  "sourcePath": "C:/Users/user/Desktop/DS/Projects/internship_projects/STC/src/contracts/STC.sol",
  "compiler": {
    "name": "solc",
    "version": "0.8.0+commit.c7dfd78e.Emscripten.clang"
  },
  "schemaVersion": "3.4.1",
  "updatedAt": "2021-06-25T17:45:16.912Z",
  "networkType": "ethereum",
  "devdoc": {
    "kind": "dev",
    "methods": {
      "approve(address,uint256)": {
        "details": "See {IERC721-approve}."
      },
      "balanceOf(address)": {
        "details": "See {IERC721-balanceOf}."
      },
      "getApproved(uint256)": {
        "details": "See {IERC721-getApproved}."
      },
      "isApprovedForAll(address,address)": {
        "details": "See {IERC721-isApprovedForAll}."
      },
      "name()": {
        "details": "See {IERC721Metadata-name}."
      },
      "owner()": {
        "details": "Returns the address of the current owner."
      },
      "ownerOf(uint256)": {
        "details": "See {IERC721-ownerOf}."
      },
      "renounceOwnership()": {
        "details": "Leaves the contract without owner. It will not be possible to call `onlyOwner` functions anymore. Can only be called by the current owner. NOTE: Renouncing ownership will leave the contract without an owner, thereby removing any functionality that is only available to the owner."
      },
      "safeTransferFrom(address,address,uint256)": {
        "details": "See {IERC721-safeTransferFrom}."
      },
      "safeTransferFrom(address,address,uint256,bytes)": {
        "details": "See {IERC721-safeTransferFrom}."
      },
      "setApprovalForAll(address,bool)": {
        "details": "See {IERC721-setApprovalForAll}."
      },
      "supportsInterface(bytes4)": {
        "details": "See {IERC165-supportsInterface}."
      },
      "symbol()": {
        "details": "See {IERC721Metadata-symbol}."
      },
      "tokenURI(uint256)": {
        "details": "See {IERC721Metadata-tokenURI}."
      },
      "transferFrom(address,address,uint256)": {
        "details": "See {IERC721-transferFrom}."
      },
      "transferOwnership(address)": {
        "details": "Transfers ownership of the contract to a new account (`newOwner`). Can only be called by the current owner."
      }
    },
    "version": 1
  },
  "userdoc": {
    "kind": "user",
    "methods": {},
    "version": 1
  }
}